{
  "_format": "hh-sol-artifact-1",
  "contractName": "Bank",
  "sourceName": "contracts/w2_1/Bank.sol",
  "abi": [
    {
      "inputs": [],
      "stateMutability": "nonpayable",
      "type": "constructor"
    },
    {
      "inputs": [
        {
          "internalType": "address",
          "name": "",
          "type": "address"
        }
      ],
      "name": "accountBalance",
      "outputs": [
        {
          "internalType": "uint256",
          "name": "",
          "type": "uint256"
        }
      ],
      "stateMutability": "view",
      "type": "function"
    },
    {
      "inputs": [],
      "name": "withdraw",
      "outputs": [],
      "stateMutability": "nonpayable",
      "type": "function"
    },
    {
      "stateMutability": "payable",
      "type": "receive"
    }
  ],
  "bytecode": "0x608060405234801561001057600080fd5b50336000806101000a81548173ffffffffffffffffffffffffffffffffffffffff021916908373ffffffffffffffffffffffffffffffffffffffff160217905550610423806100606000396000f3fe60806040526004361061002d5760003560e01c80633ccfd60b146100c7578063d294cb0f146100de576100c2565b366100c25734600160003373ffffffffffffffffffffffffffffffffffffffff1673ffffffffffffffffffffffffffffffffffffffff1681526020019081526020016000205461007d91906102c6565b600160003373ffffffffffffffffffffffffffffffffffffffff1673ffffffffffffffffffffffffffffffffffffffff16815260200190815260200160002081905550005b600080fd5b3480156100d357600080fd5b506100dc61011b565b005b3480156100ea57600080fd5b506101056004803603810190610100919061021f565b6101f2565b604051610112919061029a565b60405180910390f35b60008054906101000a900473ffffffffffffffffffffffffffffffffffffffff1673ffffffffffffffffffffffffffffffffffffffff163373ffffffffffffffffffffffffffffffffffffffff16146101a9576040517f08c379a00000000000000000000000000000000000000000000000000000000081526004016101a09061027a565b60405180910390fd5b3373ffffffffffffffffffffffffffffffffffffffff166108fc479081150290604051600060405180830381858888f193505050501580156101ef573d6000803e3d6000fd5b50565b60016020528060005260406000206000915090505481565b600081359050610219816103d6565b92915050565b60006020828403121561023157600080fd5b600061023f8482850161020a565b91505092915050565b60006102556021836102b5565b915061026082610387565b604082019050919050565b6102748161034e565b82525050565b6000602082019050818103600083015261029381610248565b9050919050565b60006020820190506102af600083018461026b565b92915050565b600082825260208201905092915050565b60006102d18261034e565b91506102dc8361034e565b9250827fffffffffffffffffffffffffffffffffffffffffffffffffffffffffffffffff0382111561031157610310610358565b5b828201905092915050565b60006103278261032e565b9050919050565b600073ffffffffffffffffffffffffffffffffffffffff82169050919050565b6000819050919050565b7f4e487b7100000000000000000000000000000000000000000000000000000000600052601160045260246000fd5b7f6f6e6c79206f776e65722063616e2063616c6c207468652066756e6374696f6e60008201527f2100000000000000000000000000000000000000000000000000000000000000602082015250565b6103df8161031c565b81146103ea57600080fd5b5056fea264697066735822122015baadda659ad96247b613fc3f85a540e9eb4d9a754103c9ee11ae2e7fafb39e64736f6c63430008040033",
  "linkReferences": {},
  "deployedLinkReferences": {}
}