{
  "contractName": "Counter",
  "abi": [
    {
      "inputs": [],
      "name": "counter",
      "outputs": [
        {
          "internalType": "uint256",
          "name": "",
          "type": "uint256"
        }
      ],
      "stateMutability": "view",
      "type": "function",
      "constant": true
    },
    {
      "inputs": [],
      "name": "add",
      "outputs": [],
      "stateMutability": "nonpayable",
      "type": "function"
    }
  ],
  "bytecode": "0x608060405234801561001057600080fd5b5060cb8061001f6000396000f3fe6080604052348015600f57600080fd5b506004361060325760003560e01c80634f2be91f14603757806361bc221a14603f575b600080fd5b603d6059565b005b604760005481565b60405190815260200160405180910390f35b600080549080606683606d565b9190505550565b6000600019821415608e57634e487b7160e01b600052601160045260246000fd5b506001019056fea2646970667358221220a1f57a191b204e91ffc7408df75efd7907dcbc380fea188c893aabfa37659e8a64736f6c63430008070033",
  "immutableReferences": {},
  "source": "// SPDX-License-Identifier: GPL-3.0\r\n\r\npragma solidity >=0.7.0 <0.9.0;\r\n\r\ncontract Counter {\r\n    uint256 public counter;\r\n\r\n    function add() external {\r\n        counter++;\r\n    }\r\n}",
  "sourcePath": "D:\\1code\\Homework\\contracts\\the_first_class\\Counter.sol",
  "compiler": {
    "name": "solc",
    "version": "0.8.7+commit.e28d00a7.Emscripten.clang"
  },
  "schemaVersion": "3.4.4",
  "updatedAt": "2022-02-27T02:47:58.851Z",
  "networkType": "ethereum",
  "devdoc": {
    "kind": "dev",
    "methods": {},
    "version": 1
  },
  "userdoc": {
    "kind": "user",
    "methods": {},
    "version": 1
  }
}